{"abi":[{"type":"constructor","inputs":[{"name":"_router","type":"address","internalType":"address"},{"name":"_owner","type":"address","internalType":"address"},{"name":"_underlyingToken","type":"address","internalType":"address"},{"name":"_feeBps","type":"uint256","internalType":"uint256"},{"name":"_feeRecipient","type":"address","internalType":"address"},{"name":"_weth","type":"address","internalType":"address"}],"stateMutability":"nonpayable"},{"type":"receive","stateMutability":"payable"},{"type":"function","name":"WETH","inputs":[],"outputs":[{"name":"","type":"address","internalType":"address"}],"stateMutability":"view"},{"type":"function","name":"admins","inputs":[{"name":"","type":"address","internalType":"address"}],"outputs":[{"name":"","type":"bool","internalType":"bool"}],"stateMutability":"view"},{"type":"function","name":"batchExecuteNativeSwaps","inputs":[{"name":"plans","type":"tuple[]","internalType":"struct IDCAForwarder.SwapPlan[]","components":[{"name":"user","type":"address","internalType":"address"},{"name":"tokenOut","type":"address","internalType":"address"},{"name":"recipient","type":"address","internalType":"address"},{"name":"amountIn","type":"uint256","internalType":"uint256"},{"name":"swapData","type":"bytes","internalType":"bytes"}]}],"outputs":[],"stateMutability":"nonpayable"},{"type":"function","name":"batchExecuteNativeSwapsWithFee","inputs":[{"name":"plans","type":"tuple[]","internalType":"struct IDCAForwarder.SwapPlan[]","components":[{"name":"user","type":"address","internalType":"address"},{"name":"tokenOut","type":"address","internalType":"address"},{"name":"recipient","type":"address","internalType":"address"},{"name":"amountIn","type":"uint256","internalType":"uint256"},{"name":"swapData","type":"bytes","internalType":"bytes"}]}],"outputs":[],"stateMutability":"nonpayable"},{"type":"function","name":"batchExecuteSwaps","inputs":[{"name":"plans","type":"tuple[]","internalType":"struct IDCAForwarder.SwapPlan[]","components":[{"name":"user","type":"address","internalType":"address"},{"name":"tokenOut","type":"address","internalType":"address"},{"name":"recipient","type":"address","internalType":"address"},{"name":"amountIn","type":"uint256","internalType":"uint256"},{"name":"swapData","type":"bytes","internalType":"bytes"}]}],"outputs":[],"stateMutability":"nonpayable"},{"type":"function","name":"batchExecuteSwapsWithFee","inputs":[{"name":"plans","type":"tuple[]","internalType":"struct IDCAForwarder.SwapPlan[]","components":[{"name":"user","type":"address","internalType":"address"},{"name":"tokenOut","type":"address","internalType":"address"},{"name":"recipient","type":"address","internalType":"address"},{"name":"amountIn","type":"uint256","internalType":"uint256"},{"name":"swapData","type":"bytes","internalType":"bytes"}]}],"outputs":[],"stateMutability":"nonpayable"},{"type":"function","name":"cancelPlan","inputs":[{"name":"tokenOut","type":"address","internalType":"address"}],"outputs":[],"stateMutability":"nonpayable"},{"type":"function","name":"createPlan","inputs":[{"name":"tokenOut","type":"address","internalType":"address"},{"name":"recipient","type":"address","internalType":"address"}],"outputs":[],"stateMutability":"nonpayable"},{"type":"function","name":"emergencyWithdrawETH","inputs":[],"outputs":[],"stateMutability":"nonpayable"},{"type":"function","name":"executeNativeSwap","inputs":[{"name":"user","type":"address","internalType":"address"},{"name":"tokenOut","type":"address","internalType":"address"},{"name":"recipient","type":"address","internalType":"address"},{"name":"amountIn","type":"uint256","internalType":"uint256"},{"name":"swapData","type":"bytes","internalType":"bytes"}],"outputs":[],"stateMutability":"nonpayable"},{"type":"function","name":"executeNativeSwapWithFee","inputs":[{"name":"user","type":"address","internalType":"address"},{"name":"tokenOut","type":"address","internalType":"address"},{"name":"recipient","type":"address","internalType":"address"},{"name":"amountIn","type":"uint256","internalType":"uint256"},{"name":"swapData","type":"bytes","internalType":"bytes"}],"outputs":[],"stateMutability":"nonpayable"},{"type":"function","name":"executeSwap","inputs":[{"name":"user","type":"address","internalType":"address"},{"name":"tokenOut","type":"address","internalType":"address"},{"name":"recipient","type":"address","internalType":"address"},{"name":"amountIn","type":"uint256","internalType":"uint256"},{"name":"swapData","type":"bytes","internalType":"bytes"}],"outputs":[],"stateMutability":"nonpayable"},{"type":"function","name":"executeSwapWithFee","inputs":[{"name":"user","type":"address","internalType":"address"},{"name":"tokenOut","type":"address","internalType":"address"},{"name":"recipient","type":"address","internalType":"address"},{"name":"amountIn","type":"uint256","internalType":"uint256"},{"name":"swapData","type":"bytes","internalType":"bytes"}],"outputs":[],"stateMutability":"nonpayable"},{"type":"function","name":"feeBps","inputs":[],"outputs":[{"name":"","type":"uint256","internalType":"uint256"}],"stateMutability":"view"},{"type":"function","name":"feeRecipient","inputs":[],"outputs":[{"name":"","type":"address","internalType":"address"}],"stateMutability":"view"},{"type":"function","name":"owner","inputs":[],"outputs":[{"name":"","type":"address","internalType":"address"}],"stateMutability":"view"},{"type":"function","name":"planHash","inputs":[{"name":"","type":"address","internalType":"address"},{"name":"","type":"address","internalType":"address"}],"outputs":[{"name":"","type":"bytes32","internalType":"bytes32"}],"stateMutability":"view"},{"type":"function","name":"renounceOwnership","inputs":[],"outputs":[],"stateMutability":"nonpayable"},{"type":"function","name":"setAdmin","inputs":[{"name":"_newAdmin","type":"address","internalType":"address"},{"name":"_isAdmin","type":"bool","internalType":"bool"}],"outputs":[],"stateMutability":"nonpayable"},{"type":"function","name":"swapRouter","inputs":[],"outputs":[{"name":"","type":"address","internalType":"address"}],"stateMutability":"view"},{"type":"function","name":"tokenIn","inputs":[],"outputs":[{"name":"","type":"address","internalType":"contract IERC20"}],"stateMutability":"view"},{"type":"function","name":"transferOwnership","inputs":[{"name":"newOwner","type":"address","internalType":"address"}],"outputs":[],"stateMutability":"nonpayable"},{"type":"function","name":"underlyingToken","inputs":[],"outputs":[{"name":"","type":"address","internalType":"address"}],"stateMutability":"view"},{"type":"function","name":"updateFeeBps","inputs":[{"name":"newFeeBps","type":"uint256","internalType":"uint256"}],"outputs":[],"stateMutability":"nonpayable"},{"type":"function","name":"updateFeeRecipient","inputs":[{"name":"newFeeRecipient","type":"address","internalType":"address"}],"outputs":[],"stateMutability":"nonpayable"},{"type":"function","name":"updatePlanRecipient","inputs":[{"name":"tokenOut","type":"address","internalType":"address"},{"name":"newRecipient","type":"address","internalType":"address"}],"outputs":[],"stateMutability":"nonpayable"},{"type":"function","name":"updateSwapRouter","inputs":[{"name":"newRouter","type":"address","internalType":"address"}],"outputs":[],"stateMutability":"nonpayable"},{"type":"function","name":"updateUnderlyingToken","inputs":[{"name":"newUnderlyingToken","type":"address","internalType":"address"}],"outputs":[],"stateMutability":"nonpayable"},{"type":"event","name":"ETHTransferFailed","inputs":[{"name":"recipient","type":"address","indexed":true,"internalType":"address"},{"name":"amount","type":"uint256","indexed":false,"internalType":"uint256"}],"anonymous":false},{"type":"event","name":"OwnershipTransferred","inputs":[{"name":"previousOwner","type":"address","indexed":true,"internalType":"address"},{"name":"newOwner","type":"address","indexed":true,"internalType":"address"}],"anonymous":false},{"type":"event","name":"PlanCancelled","inputs":[{"name":"user","type":"address","indexed":true,"internalType":"address"},{"name":"tokenOut","type":"address","indexed":false,"internalType":"address"},{"name":"planHash","type":"bytes32","indexed":false,"internalType":"bytes32"}],"anonymous":false},{"type":"event","name":"PlanCreated","inputs":[{"name":"user","type":"address","indexed":true,"internalType":"address"},{"name":"tokenOut","type":"address","indexed":false,"internalType":"address"},{"name":"recipient","type":"address","indexed":false,"internalType":"address"},{"name":"planHash","type":"bytes32","indexed":false,"internalType":"bytes32"}],"anonymous":false},{"type":"event","name":"PlanRecipientUpdated","inputs":[{"name":"user","type":"address","indexed":true,"internalType":"address"},{"name":"tokenOut","type":"address","indexed":false,"internalType":"address"},{"name":"newRecipient","type":"address","indexed":false,"internalType":"address"},{"name":"oldHash","type":"bytes32","indexed":false,"internalType":"bytes32"},{"name":"newHash","type":"bytes32","indexed":false,"internalType":"bytes32"}],"anonymous":false},{"type":"event","name":"SwapExecuted","inputs":[{"name":"user","type":"address","indexed":true,"internalType":"address"},{"name":"recipient","type":"address","indexed":false,"internalType":"address"},{"name":"toToken","type":"address","indexed":false,"internalType":"address"},{"name":"amountIn","type":"uint256","indexed":false,"internalType":"uint256"},{"name":"amountOut","type":"uint256","indexed":true,"internalType":"uint256"},{"name":"feeAmount","type":"uint256","indexed":false,"internalType":"uint256"}],"anonymous":false},{"type":"error","name":"ApproveFailed","inputs":[]},{"type":"error","name":"ETHWithdrawalFailed","inputs":[]},{"type":"error","name":"FeeTransferFailed","inputs":[]},{"type":"error","name":"NoETHToWithdraw","inputs":[]},{"type":"error","name":"NoTokenOutReceived","inputs":[]},{"type":"error","name":"OnlyWETHCanSendETH","inputs":[]},{"type":"error","name":"OwnableInvalidOwner","inputs":[{"name":"owner","type":"address","internalType":"address"}]},{"type":"error","name":"OwnableUnauthorizedAccount","inputs":[{"name":"account","type":"address","internalType":"address"}]},{"type":"error","name":"PlanMismatch","inputs":[]},{"type":"error","name":"SwapFailed","inputs":[]},{"type":"error","name":"TransferFailed","inputs":[]},{"type":"error","name":"TransferFromFailed","inputs":[]},{"type":"error","name":"Unauthorized","inputs":[]},{"type":"error","name":"ZeroAddress","inputs":[]}],"bytecode":{"object":"0x60a060405234801561000f575f5ffd5b50604051613e95380380613e9583398101604081905261002e91610139565b846001600160a01b03811661005c57604051631e4fbdf760e01b81525f600482015260240160405180910390fd5b610065816100cf565b50600280546001600160a01b03199081166001600160a01b03988916179091556001805482169588169590951785556004939093556005805490931691861691909117909155831660805291165f908152600760205260409020805460ff191690911790556101a2565b5f80546001600160a01b038381166001600160a01b0319831681178455604051919092169283917f8be0079c531659141344cd1fd0a4f28419497f9722a3daafe3b4186f6b6457e09190a35050565b80516001600160a01b0381168114610134575f5ffd5b919050565b5f5f5f5f5f5f60c0878903121561014e575f5ffd5b6101578761011e565b95506101656020880161011e565b94506101736040880161011e565b9350606087015192506101886080880161011e565b915061019660a0880161011e565b90509295509295509295565b608051613c9c6101f95f395f81816101c201528181610445015281816109e201528181610a2f01528181611651015281816116a501528181612984015281816129d801528181612fe2015261302f0152613c9c5ff3fe6080604052600436106101b2575f3560e01c80638da5cb5b116100e7578063c31c9c0711610087578063d217bcec11610062578063d217bcec14610540578063d30dfa851461055f578063f160d3691461057e578063f2fde38b1461059d575f5ffd5b8063c31c9c07146104e3578063c4d6978f14610502578063c8ff3fee14610521575f5ffd5b8063ae75f0cc116100c2578063ae75f0cc14610467578063b98b677f14610486578063ba20ac00146104a5578063ba5f954a146104c4575f5ffd5b80638da5cb5b146103f957806396a1cd2714610415578063ad5c464814610434575f5ffd5b80634c5cc3e011610152578063715018a61161012d578063715018a61461037c5780637823f8c01461039057806384536017146103c65780638d041a79146103da575f5ffd5b80634c5cc3e01461031f5780636c5f1f541461033e5780636daf390b1461035d575f5ffd5b8063429b62e51161018d578063429b62e51461028457806344272f43146102c257806346904840146102e15780634b0bddd214610300575f5ffd5b8063100da5d6146102065780632495a5991461022557806324a9d85314610261575f5ffd5b3661020257336001600160a01b037f0000000000000000000000000000000000000000000000000000000000000000161461020057604051630991a3bb60e11b815260040160405180910390fd5b005b5f5ffd5b348015610211575f5ffd5b506102006102203660046138bc565b6105bc565b348015610230575f5ffd5b50600354610244906001600160a01b031681565b6040516001600160a01b0390911681526020015b60405180910390f35b34801561026c575f5ffd5b5061027660045481565b604051908152602001610258565b34801561028f575f5ffd5b506102b261029e3660046138bc565b60076020525f908152604090205460ff1681565b6040519015158152602001610258565b3480156102cd575f5ffd5b506102006102dc3660046138dc565b610623565b3480156102ec575f5ffd5b50600554610244906001600160a01b031681565b34801561030b575f5ffd5b5061020061031a366004613991565b610b6a565b34801561032a575f5ffd5b506102006103393660046138dc565b610bc3565b348015610349575f5ffd5b506102006103583660046139c6565b61110c565b348015610368575f5ffd5b50600154610244906001600160a01b031681565b348015610387575f5ffd5b5061020061183a565b34801561039b575f5ffd5b506102766103aa366004613a37565b600660209081525f928352604080842090915290825290205481565b3480156103d1575f5ffd5b5061020061184d565b3480156103e5575f5ffd5b506102006103f43660046139c6565b6118ec565b348015610404575f5ffd5b505f546001600160a01b0316610244565b348015610420575f5ffd5b5061020061042f366004613a68565b611f38565b34801561043f575f5ffd5b506102447f000000000000000000000000000000000000000000000000000000000000000081565b348015610472575f5ffd5b506102006104813660046139c6565b611f45565b348015610491575f5ffd5b506102006104a03660046138bc565b6124d2565b3480156104b0575f5ffd5b506102006104bf3660046139c6565b6124fc565b3480156104cf575f5ffd5b506102006104de3660046138dc565b612b66565b3480156104ee575f5ffd5b50600254610244906001600160a01b031681565b34801561050d575f5ffd5b5061020061051c3660046138bc565b613155565b34801561052c575f5ffd5b5061020061053b3660046138dc565b613189565b34801561054b575f5ffd5b5061020061055a366004613a37565b613546565b34801561056a575f5ffd5b50610200610579366004613a37565b613640565b348015610589575f5ffd5b506102006105983660046138bc565b61371d565b3480156105a8575f5ffd5b506102006105b73660046138bc565b613747565b335f8181526006602090815260408083206001600160a01b03861684529091528082208054929055519091907f72332914a7de29e5d1284b68a8213c712de738fcc724dc5fcb054fd906e12388906106179085908590613a7f565b60405180910390a25050565b335f9081526007602052604090205460ff16610651576040516282b42960e81b815260040160405180910390fd5b8484604051602001610664929190613a98565b60408051601f1981840301815291815281516020928301206001600160a01b03808a165f90815260068552838120918a1681529352912054146106ba576040516354fb1d1d60e11b815260040160405180910390fd5b6001546040516323b872dd60e01b81526001600160a01b03909116906323b872dd906106ee90899030908890600401613abf565b6020604051808303815f875af115801561070a573d5f5f3e3d5ffd5b505050506040513d601f19601f8201168201806040525081019061072e9190613ae3565b61074b57604051631e4e7d0960e21b815260040160405180910390fd5b600154600254604051636eb1769f60e11b815285926001600160a01b039081169263dd62ed3e926107829230921690600401613afe565b602060405180830381865afa15801561079d573d5f5f3e3d5ffd5b505050506040513d601f19601f820116820180604052508101906107c19190613b18565b101561085b5760015460025460405163095ea7b360e01b81526001600160a01b039283169263095ea7b3926107fe929116905f1990600401613a7f565b6020604051808303815f875af115801561081a573d5f5f3e3d5ffd5b505050506040513d601f19601f8201168201806040525081019061083e9190613ae3565b61085b57604051633e3f8f7360e01b815260040160405180910390fd5b6040516370a0823160e01b815230600482015285905f906001600160a01b038316906370a0823190602401602060405180830381865afa1580156108a1573d5f5f3e3d5ffd5b505050506040513d601f19601f820116820180604052508101906108c59190613b18565b6002546040519192505f916001600160a01b03909116906108e99087908790613b2f565b5f604051808303815f865af19150503d805f8114610922576040519150601f19603f3d011682016040523d82523d5f602084013e610927565b606091505b50509050806109495760405163081ceff360e41b815260040160405180910390fd5b6040516370a0823160e01b81523060048201525f906001600160a01b038516906370a0823190602401602060405180830381865afa15801561098d573d5f5f3e3d5ffd5b505050506040513d601f19601f820116820180604052508101906109b19190613b18565b90505f6109be8483613b52565b9050805f036109e057604051633629694560e11b815260040160405180910390fd5b7f00000000000000000000000000000000000000000000000000000000000000006001600160a01b03168a6001600160a01b031603610a9d57604051632e1a7d4d60e01b8152600481018290527f00000000000000000000000000000000000000000000000000000000000000006001600160a01b031690632e1a7d4d906024015f604051808303815f87803b158015610a78575f5ffd5b505af1158015610a8a573d5f5f3e3d5ffd5b50505050610a988982613789565b610b28565b60405163a9059cbb60e01b81526001600160a01b0386169063a9059cbb90610acb908c908590600401613a7f565b6020604051808303815f875af1158015610ae7573d5f5f3e3d5ffd5b505050506040513d601f19601f82011682018060405250810190610b0b9190613ae3565b610b28576040516312171d8360e31b815260040160405180910390fd5b808b6001600160a01b03165f516020613c475f395f51905f528b8d8c5f604051610b559493929190613b6b565b60405180910390a35050505050505050505050565b610b72613826565b6001600160a01b038216610b995760405163d92e233d60e01b815260040160405180910390fd5b6001600160a01b03919091165f908152600760205260409020805460ff1916911515919091179055565b335f9081526007602052604090205460ff16610bf1576040516282b42960e81b815260040160405180910390fd5b8484604051602001610c04929190613a98565b60408051601f1981840301815291815281516020928301206001600160a01b03808a165f90815260068552838120918a168152935291205414610c5a576040516354fb1d1d60e11b815260040160405180910390fd5b6001546040516323b872dd60e01b81526001600160a01b03909116906323b872dd90610c8e90899030908890600401613abf565b6020604051808303815f875af1158015610caa573d5f5f3e3d5ffd5b505050506040513d601f19601f82011682018060405250810190610cce9190613ae3565b610ceb57604051631e4e7d0960e21b815260040160405180910390fd5b600154600254604051636eb1769f60e11b815285926001600160a01b039081169263dd62ed3e92610d229230921690600401613afe565b602060405180830381865afa158015610d3d573d5f5f3e3d5ffd5b505050506040513d601f19601f82011682018060405250810190610d619190613b18565b1015610dfb5760015460025460405163095ea7b360e01b81526001600160a01b039283169263095ea7b392610d9e929116905f1990600401613a7f565b6020604051808303815f875af1158015610dba573d5f5f3e3d5ffd5b505050506040513d601f19601f82011682018060405250810190610dde9190613ae3565b610dfb57604051633e3f8f7360e01b815260040160405180910390fd5b6040516370a0823160e01b815230600482015285905f906001600160a01b038316906370a0823190602401602060405180830381865afa158015610e41573d5f5f3e3d5ffd5b505050506040513d601f19601f82011682018060405250810190610e659190613b18565b6002546040519192505f916001600160a01b0390911690610e899087908790613b2f565b5f604051808303815f865af19150503d805f8114610ec2576040519150601f19603f3d011682016040523d82523d5f602084013e610ec7565b606091505b5050905080610ee95760405163081ceff360e41b815260040160405180910390fd5b6040516370a0823160e01b81523060048201525f906001600160a01b038516906370a0823190602401602060405180830381865afa158015610f2d573d5f5f3e3d5ffd5b505050506040513d601f19601f82011682018060405250810190610f519190613b18565b90505f610f5e8483613b52565b9050805f03610f8057604051633629694560e11b815260040160405180910390fd5b60045481905f9061271090610f959084613b94565b610f9f9190613bab565b9050610fab8184613b52565b60055460405163a9059cbb60e01b81529193506001600160a01b03808a169263a9059cbb92610fe09216908590600401613a7f565b6020604051808303815f875af1158015610ffc573d5f5f3e3d5ffd5b505050506040513d601f19601f820116820180604052508101906110209190613ae3565b61103d57604051634033e4e360e01b815260040160405180910390fd5b60405163a9059cbb60e01b81526001600160a01b0388169063a9059cbb9061106b908e908690600401613a7f565b6020604051808303815f875af1158015611087573d5f5f3e3d5ffd5b505050506040513d601f19601f820116820180604052508101906110ab9190613ae3565b6110c8576040516312171d8360e31b815260040160405180910390fd5b818d6001600160a01b03165f516020613c475f395f51905f528d8f8e866040516110f59493929190613b6b565b60405180910390a350505050505050505050505050565b335f9081526007602052604090205460ff1661113a576040516282b42960e81b815260040160405180910390fd5b5f5b81811015611835573683838381811061115757611157613bca565b90506020028101906111699190613bde565b905061117b60408201602083016138bc565b61118b60608301604084016138bc565b60405160200161119c929190613a98565b6040516020818303038152906040528051906020012060065f835f0160208101906111c791906138bc565b6001600160a01b03166001600160a01b031681526020019081526020015f205f8360200160208101906111fa91906138bc565b6001600160a01b03166001600160a01b031681526020019081526020015f205414611238576040516354fb1d1d60e11b815260040160405180910390fd5b6001546001600160a01b03166323b872dd61125660208401846138bc565b3084606001356040518463ffffffff1660e01b815260040161127a93929190613abf565b6020604051808303815f875af1158015611296573d5f5f3e3d5ffd5b505050506040513d601f19601f820116820180604052508101906112ba9190613ae3565b6112d757604051631e4e7d0960e21b815260040160405180910390fd5b600154600254604051636eb1769f60e11b81526060840135926001600160a01b039081169263dd62ed3e926113129230921690600401613afe565b602060405180830381865afa15801561132d573d5f5f3e3d5ffd5b505050506040513d601f19601f820116820180604052508101906113519190613b18565b10156113eb5760015460025460405163095ea7b360e01b81526001600160a01b039283169263095ea7b39261138e929116905f1990600401613a7f565b6020604051808303815f875af11580156113aa573d5f5f3e3d5ffd5b505050506040513d601f19601f820116820180604052508101906113ce9190613ae3565b6113eb57604051633e3f8f7360e01b815260040160405180910390fd5b5f6113fc60408301602084016138bc565b6040516370a0823160e01b81523060048201529091505f906001600160a01b038316906370a0823190602401602060405180830381865afa158015611443573d5f5f3e3d5ffd5b505050506040513d601f19601f820116820180604052508101906114679190613b18565b6002549091505f906001600160a01b03166114856080860186613bfc565b604051611493929190613b2f565b5f604051808303815f865af19150503d805f81146114cc576040519150601f19603f3d011682016040523d82523d5f602084013e6114d1565b606091505b50509050806114f35760405163081ceff360e41b815260040160405180910390fd5b6040516370a0823160e01b81523060048201525f906001600160a01b038516906370a0823190602401602060405180830381865afa158015611537573d5f5f3e3d5ffd5b505050506040513d601f19601f8201168201806040525081019061155b9190613b18565b90505f6115688483613b52565b9050805f0361158a57604051633629694560e11b815260040160405180910390fd5b60045481905f906127109061159f9084613b94565b6115a99190613bab565b90506115b58184613b52565b60055460405163a9059cbb60e01b81529193506001600160a01b03808a169263a9059cbb926115ea9216908590600401613a7f565b6020604051808303815f875af1158015611606573d5f5f3e3d5ffd5b505050506040513d601f19601f8201168201806040525081019061162a9190613ae3565b61164757604051634033e4e360e01b815260040160405180910390fd5b6001600160a01b037f00000000000000000000000000000000000000000000000000000000000000001661168160408a0160208b016138bc565b6001600160a01b03160361172457604051632e1a7d4d60e01b8152600481018390527f00000000000000000000000000000000000000000000000000000000000000006001600160a01b031690632e1a7d4d906024015f604051808303815f87803b1580156116ee575f5ffd5b505af1158015611700573d5f5f3e3d5ffd5b5061171f925061171991505060608a0160408b016138bc565b83613789565b6117be565b6001600160a01b03871663a9059cbb61174360608b0160408c016138bc565b846040518363ffffffff1660e01b8152600401611761929190613a7f565b6020604051808303815f875af115801561177d573d5f5f3e3d5ffd5b505050506040513d601f19601f820116820180604052508101906117a19190613ae3565b6117be576040516312171d8360e31b815260040160405180910390fd5b816117cc60208a018a6138bc565b6001600160a01b03165f516020613c475f395f51905f526117f360608c0160408d016138bc565b61180360408d0160208e016138bc565b8c60600135866040516118199493929190613b6b565b60405180910390a350506001909601955061113c945050505050565b505050565b611842613826565b61184b5f613852565b565b611855613826565b475f8190036118775760405163cff858f960e01b815260040160405180910390fd5b5f80546040516001600160a01b039091169083908381818185875af1925050503d805f81146118c1576040519150601f19603f3d011682016040523d82523d5f602084013e6118c6565b606091505b50509050806118e857604051634088176760e11b815260040160405180910390fd5b5050565b335f9081526007602052604090205460ff1661191a576040516282b42960e81b815260040160405180910390fd5b5f5b81811015611835573683838381811061193757611937613bca565b90506020028101906119499190613bde565b905061195b60408201602083016138bc565b61196b60608301604084016138bc565b60405160200161197c929190613a98565b6040516020818303038152906040528051906020012060065f835f0160208101906119a791906138bc565b6001600160a01b03166001600160a01b031681526020019081526020015f205f8360200160208101906119da91906138bc565b6001600160a01b03166001600160a01b031681526020019081526020015f205414611a18576040516354fb1d1d60e11b815260040160405180910390fd5b6001546001600160a01b03166323b872dd611a3660208401846138bc565b3084606001356040518463ffffffff1660e01b8152600401611a5a93929190613abf565b6020604051808303815f875af1158015611a76573d5f5f3e3d5ffd5b505050506040513d601f19601f82011682018060405250810190611a9a9190613ae3565b611ab757604051631e4e7d0960e21b815260040160405180910390fd5b600154600254604051636eb1769f60e11b81526060840135926001600160a01b039081169263dd62ed3e92611af29230921690600401613afe565b602060405180830381865afa158015611b0d573d5f5f3e3d5ffd5b505050506040513d601f19601f82011682018060405250810190611b319190613b18565b1015611bcb5760015460025460405163095ea7b360e01b81526001600160a01b039283169263095ea7b392611b6e929116905f1990600401613a7f565b6020604051808303815f875af1158015611b8a573d5f5f3e3d5ffd5b505050506040513d601f19601f82011682018060405250810190611bae9190613ae3565b611bcb57604051633e3f8f7360e01b815260040160405180910390fd5b5f611bdc60408301602084016138bc565b6040516370a0823160e01b81523060048201529091505f906001600160a01b038316906370a0823190602401602060405180830381865afa158015611c23573d5f5f3e3d5ffd5b505050506040513d601f19601f82011682018060405250810190611c479190613b18565b6002549091505f906001600160a01b0316611c656080860186613bfc565b604051611c73929190613b2f565b5f604051808303815f865af19150503d805f8114611cac576040519150601f19603f3d011682016040523d82523d5f602084013e611cb1565b606091505b5050905080611cd35760405163081ceff360e41b815260040160405180910390fd5b6040516370a0823160e01b81523060048201525f906001600160a01b038516906370a0823190602401602060405180830381865afa158015611d17573d5f5f3e3d5ffd5b505050506040513d601f19601f82011682018060405250810190611d3b9190613b18565b90505f611d488483613b52565b9050805f03611d6a57604051633629694560e11b815260040160405180910390fd5b60045481905f9061271090611d7f9084613b94565b611d899190613bab565b9050611d958184613b52565b60055460405163a9059cbb60e01b81529193506001600160a01b03808a169263a9059cbb92611dca9216908590600401613a7f565b6020604051808303815f875af1158015611de6573d5f5f3e3d5ffd5b505050506040513d601f19601f82011682018060405250810190611e0a9190613ae3565b611e2757604051634033e4e360e01b815260040160405180910390fd5b6001600160a01b03871663a9059cbb611e4660608b0160408c016138bc565b846040518363ffffffff1660e01b8152600401611e64929190613a7f565b6020604051808303815f875af1158015611e80573d5f5f3e3d5ffd5b505050506040513d601f19601f82011682018060405250810190611ea49190613ae3565b611ec1576040516312171d8360e31b815260040160405180910390fd5b81611ecf60208a018a6138bc565b6001600160a01b03165f516020613c475f395f51905f52611ef660608c0160408d016138bc565b611f0660408d0160208e016138bc565b8c6060013586604051611f1c9493929190613b6b565b60405180910390a350506001909601955061191c945050505050565b611f40613826565b600455565b335f9081526007602052604090205460ff16611f73576040516282b42960e81b815260040160405180910390fd5b5f5b818110156118355736838383818110611f9057611f90613bca565b9050602002810190611fa29190613bde565b9050611fb460408201602083016138bc565b611fc460608301604084016138bc565b604051602001611fd5929190613a98565b6040516020818303038152906040528051906020012060065f835f01602081019061200091906138bc565b6001600160a01b03166001600160a01b031681526020019081526020015f205f83602001602081019061203391906138bc565b6001600160a01b03166001600160a01b031681526020019081526020015f205414612071576040516354fb1d1d60e11b815260040160405180910390fd5b6001546001600160a01b03166323b872dd61208f60208401846138bc565b3084606001356040518463ffffffff1660e01b81526004016120b393929190613abf565b6020604051808303815f875af11580156120cf573d5f5f3e3d5ffd5b505050506040513d601f19601f820116820180604052508101906120f39190613ae3565b61211057604051631e4e7d0960e21b815260040160405180910390fd5b600154600254604051636eb1769f60e11b81526060840135926001600160a01b039081169263dd62ed3e9261214b9230921690600401613afe565b602060405180830381865afa158015612166573d5f5f3e3d5ffd5b505050506040513d601f19601f8201168201806040525081019061218a9190613b18565b10156122245760015460025460405163095ea7b360e01b81526001600160a01b039283169263095ea7b3926121c7929116905f1990600401613a7f565b6020604051808303815f875af11580156121e3573d5f5f3e3d5ffd5b505050506040513d601f19601f820116820180604052508101906122079190613ae3565b61222457604051633e3f8f7360e01b815260040160405180910390fd5b5f61223560408301602084016138bc565b6040516370a0823160e01b81523060048201529091505f906001600160a01b038316906370a0823190602401602060405180830381865afa15801561227c573d5f5f3e3d5ffd5b505050506040513d601f19601f820116820180604052508101906122a09190613b18565b6002549091505f906001600160a01b03166122be6080860186613bfc565b6040516122cc929190613b2f565b5f604051808303815f865af19150503d805f8114612305576040519150601f19603f3d011682016040523d82523d5f602084013e61230a565b606091505b505090508061232c5760405163081ceff360e41b815260040160405180910390fd5b6040516370a0823160e01b81523060048201525f906001600160a01b038516906370a0823190602401602060405180830381865afa158015612370573d5f5f3e3d5ffd5b505050506040513d601f19601f820116820180604052508101906123949190613b18565b90505f6123a18483613b52565b9050805f036123c357604051633629694560e11b815260040160405180910390fd5b6001600160a01b03851663a9059cbb6123e26060890160408a016138bc565b836040518363ffffffff1660e01b8152600401612400929190613a7f565b6020604051808303815f875af115801561241c573d5f5f3e3d5ffd5b505050506040513d601f19601f820116820180604052508101906124409190613ae3565b61245d576040516312171d8360e31b815260040160405180910390fd5b8061246b60208801886138bc565b6001600160a01b03165f516020613c475f395f51905f5261249260608a0160408b016138bc565b6124a260408b0160208c016138bc565b8a606001355f6040516124b89493929190613b6b565b60405180910390a3505060019094019350611f7592505050565b6124da613826565b600280546001600160a01b0319166001600160a01b0392909216919091179055565b335f9081526007602052604090205460ff1661252a576040516282b42960e81b815260040160405180910390fd5b5f5b81811015611835573683838381811061254757612547613bca565b90506020028101906125599190613bde565b905061256b60408201602083016138bc565b61257b60608301604084016138bc565b60405160200161258c929190613a98565b6040516020818303038152906040528051906020012060065f835f0160208101906125b791906138bc565b6001600160a01b03166001600160a01b031681526020019081526020015f205f8360200160208101906125ea91906138bc565b6001600160a01b03166001600160a01b031681526020019081526020015f205414612628576040516354fb1d1d60e11b815260040160405180910390fd5b6001546001600160a01b03166323b872dd61264660208401846138bc565b3084606001356040518463ffffffff1660e01b815260040161266a93929190613abf565b6020604051808303815f875af1158015612686573d5f5f3e3d5ffd5b505050506040513d601f19601f820116820180604052508101906126aa9190613ae3565b6126c757604051631e4e7d0960e21b815260040160405180910390fd5b600154600254604051636eb1769f60e11b81526060840135926001600160a01b039081169263dd62ed3e926127029230921690600401613afe565b602060405180830381865afa15801561271d573d5f5f3e3d5ffd5b505050506040513d601f19601f820116820180604052508101906127419190613b18565b10156127db5760015460025460405163095ea7b360e01b81526001600160a01b039283169263095ea7b39261277e929116905f1990600401613a7f565b6020604051808303815f875af115801561279a573d5f5f3e3d5ffd5b505050506040513d601f19601f820116820180604052508101906127be9190613ae3565b6127db57604051633e3f8f7360e01b815260040160405180910390fd5b5f6127ec60408301602084016138bc565b6040516370a0823160e01b81523060048201529091505f906001600160a01b038316906370a0823190602401602060405180830381865afa158015612833573d5f5f3e3d5ffd5b505050506040513d601f19601f820116820180604052508101906128579190613b18565b6002549091505f906001600160a01b03166128756080860186613bfc565b604051612883929190613b2f565b5f604051808303815f865af19150503d805f81146128bc576040519150601f19603f3d011682016040523d82523d5f602084013e6128c1565b606091505b50509050806128e35760405163081ceff360e41b815260040160405180910390fd5b6040516370a0823160e01b81523060048201525f906001600160a01b038516906370a0823190602401602060405180830381865afa158015612927573d5f5f3e3d5ffd5b505050506040513d601f19601f8201168201806040525081019061294b9190613b18565b90505f6129588483613b52565b9050805f0361297a57604051633629694560e11b815260040160405180910390fd5b6001600160a01b037f0000000000000000000000000000000000000000000000000000000000000000166129b460408801602089016138bc565b6001600160a01b031603612a5757604051632e1a7d4d60e01b8152600481018290527f00000000000000000000000000000000000000000000000000000000000000006001600160a01b031690632e1a7d4d906024015f604051808303815f87803b158015612a21575f5ffd5b505af1158015612a33573d5f5f3e3d5ffd5b50612a529250612a4c91505060608801604089016138bc565b82613789565b612af1565b6001600160a01b03851663a9059cbb612a766060890160408a016138bc565b836040518363ffffffff1660e01b8152600401612a94929190613a7f565b6020604051808303815f875af1158015612ab0573d5f5f3e3d5ffd5b505050506040513d601f19601f82011682018060405250810190612ad49190613ae3565b612af1576040516312171d8360e31b815260040160405180910390fd5b80612aff60208801886138bc565b6001600160a01b03165f516020613c475f395f51905f52612b2660608a0160408b016138bc565b612b3660408b0160208c016138bc565b8a606001355f604051612b4c9493929190613b6b565b60405180910390a350506001909401935061252c92505050565b335f9081526007602052604090205460ff16612b94576040516282b42960e81b815260040160405180910390fd5b8484604051602001612ba7929190613a98565b60408051601f1981840301815291815281516020928301206001600160a01b03808a165f90815260068552838120918a168152935291205414612bfd576040516354fb1d1d60e11b815260040160405180910390fd5b6001546040516323b872dd60e01b81526001600160a01b03909116906323b872dd90612c3190899030908890600401613abf565b6020604051808303815f875af1158015612c4d573d5f5f3e3d5ffd5b505050506040513d601f19601f82011682018060405250810190612c719190613ae3565b612c8e57604051631e4e7d0960e21b815260040160405180910390fd5b600154600254604051636eb1769f60e11b815285926001600160a01b039081169263dd62ed3e92612cc59230921690600401613afe565b602060405180830381865afa158015612ce0573d5f5f3e3d5ffd5b505050506040513d601f19601f82011682018060405250810190612d049190613b18565b1015612d9e5760015460025460405163095ea7b360e01b81526001600160a01b039283169263095ea7b392612d41929116905f1990600401613a7f565b6020604051808303815f875af1158015612d5d573d5f5f3e3d5ffd5b505050506040513d601f19601f82011682018060405250810190612d819190613ae3565b612d9e57604051633e3f8f7360e01b815260040160405180910390fd5b6040516370a0823160e01b815230600482015285905f906001600160a01b038316906370a0823190602401602060405180830381865afa158015612de4573d5f5f3e3d5ffd5b505050506040513d601f19601f82011682018060405250810190612e089190613b18565b6002546040519192505f916001600160a01b0390911690612e2c9087908790613b2f565b5f604051808303815f865af19150503d805f8114612e65576040519150601f19603f3d011682016040523d82523d5f602084013e612e6a565b606091505b5050905080612e8c5760405163081ceff360e41b815260040160405180910390fd5b6040516370a0823160e01b81523060048201525f906001600160a01b038516906370a0823190602401602060405180830381865afa158015612ed0573d5f5f3e3d5ffd5b505050506040513d601f19601f82011682018060405250810190612ef49190613b18565b90505f612f018483613b52565b9050805f03612f2357604051633629694560e11b815260040160405180910390fd5b60045481905f9061271090612f389084613b94565b612f429190613bab565b9050612f4e8184613b52565b60055460405163a9059cbb60e01b81529193506001600160a01b03808a169263a9059cbb92612f839216908590600401613a7f565b6020604051808303815f875af1158015612f9f573d5f5f3e3d5ffd5b505050506040513d601f19601f82011682018060405250810190612fc39190613ae3565b612fe057604051634033e4e360e01b815260040160405180910390fd5b7f00000000000000000000000000000000000000000000000000000000000000006001600160a01b03168c6001600160a01b03160361309d57604051632e1a7d4d60e01b8152600481018390527f00000000000000000000000000000000000000000000000000000000000000006001600160a01b031690632e1a7d4d906024015f604051808303815f87803b158015613078575f5ffd5b505af115801561308a573d5f5f3e3d5ffd5b505050506130988b83613789565b613128565b60405163a9059cbb60e01b81526001600160a01b0388169063a9059cbb906130cb908e908690600401613a7f565b6020604051808303815f875af11580156130e7573d5f5f3e3d5ffd5b505050506040513d601f19601f8201168201806040525081019061310b9190613ae3565b613128576040516312171d8360e31b815260040160405180910390fd5b828d6001600160a01b03165f516020613c475f395f51905f528d8f8e5f6040516110f59493929190613b6b565b61315d613826565b600180546001600160a01b039092166001600160a01b0319928316811790915560038054909216179055565b335f9081526007602052604090205460ff166131b7576040516282b42960e81b815260040160405180910390fd5b84846040516020016131ca929190613a98565b60408051601f1981840301815291815281516020928301206001600160a01b03808a165f90815260068552838120918a168152935291205414613220576040516354fb1d1d60e11b815260040160405180910390fd5b6001546040516323b872dd60e01b81526001600160a01b03909116906323b872dd9061325490899030908890600401613abf565b6020604051808303815f875af1158015613270573d5f5f3e3d5ffd5b505050506040513d601f19601f820116820180604052508101906132949190613ae3565b6132b157604051631e4e7d0960e21b815260040160405180910390fd5b600154600254604051636eb1769f60e11b815285926001600160a01b039081169263dd62ed3e926132e89230921690600401613afe565b602060405180830381865afa158015613303573d5f5f3e3d5ffd5b505050506040513d601f19601f820116820180604052508101906133279190613b18565b10156133c15760015460025460405163095ea7b360e01b81526001600160a01b039283169263095ea7b392613364929116905f1990600401613a7f565b6020604051808303815f875af1158015613380573d5f5f3e3d5ffd5b505050506040513d601f19601f820116820180604052508101906133a49190613ae3565b6133c157604051633e3f8f7360e01b815260040160405180910390fd5b6040516370a0823160e01b815230600482015285905f906001600160a01b038316906370a0823190602401602060405180830381865afa158015613407573d5f5f3e3d5ffd5b505050506040513d601f19601f8201168201806040525081019061342b9190613b18565b6002546040519192505f916001600160a01b039091169061344f9087908790613b2f565b5f604051808303815f865af19150503d805f8114613488576040519150601f19603f3d011682016040523d82523d5f602084013e61348d565b606091505b50509050806134af5760405163081ceff360e41b815260040160405180910390fd5b6040516370a0823160e01b81523060048201525f906001600160a01b038516906370a0823190602401602060405180830381865afa1580156134f3573d5f5f3e3d5ffd5b505050506040513d601f19601f820116820180604052508101906135179190613b18565b90505f6135248483613b52565b9050805f03610a9d57604051633629694560e11b815260040160405180910390fd5b6001600160a01b03811661356d5760405163d92e233d60e01b815260040160405180910390fd5b335f9081526006602090815260408083206001600160a01b0386168452909152902054806135ae576040516354fb1d1d60e11b815260040160405180910390fd5b5f83836040516020016135c2929190613a98565b60408051601f198184030181528282528051602091820120335f818152600684528481206001600160a01b038b168252909352929091208190559250907fa58a298ac88c55a3fc4da4eceadc2385b26e86b637659b664913a55dde9be65d90613632908790879087908790613b6b565b60405180910390a250505050565b6001600160a01b0382166136675760405163d92e233d60e01b815260040160405180910390fd5b6001600160a01b03811661368e5760405163d92e233d60e01b815260040160405180910390fd5b5f82826040516020016136a2929190613a98565b60408051601f198184030181528282528051602091820120335f818152600684528481206001600160a01b038a168252909352929091208190559250907fe28d4fce5513eb14e83f1d21b3f975dae5a7e6b858f6d414d4895189558858549061371090869086908690613abf565b60405180910390a2505050565b613725613826565b600580546001600160a01b0319166001600160a01b0392909216919091179055565b61374f613826565b6001600160a01b03811661377d57604051631e4fbdf760e01b81525f60048201526024015b60405180910390fd5b61378681613852565b50565b805f03613794575050565b5f826001600160a01b0316826040515f6040518083038185875af1925050503d805f81146137dd576040519150601f19603f3d011682016040523d82523d5f602084013e6137e2565b606091505b505090508061183557826001600160a01b03167f5e0a829b064110e9c05dca83263ffb77f1674250e6704ec97887b3ae53c5b18f8360405161371091815260200190565b5f546001600160a01b0316331461184b5760405163118cdaa760e01b8152336004820152602401613774565b5f80546001600160a01b038381166001600160a01b0319831681178455604051919092169283917f8be0079c531659141344cd1fd0a4f28419497f9722a3daafe3b4186f6b6457e09190a35050565b80356001600160a01b03811681146138b7575f5ffd5b919050565b5f602082840312156138cc575f5ffd5b6138d5826138a1565b9392505050565b5f5f5f5f5f5f60a087890312156138f1575f5ffd5b6138fa876138a1565b9550613908602088016138a1565b9450613916604088016138a1565b935060608701359250608087013567ffffffffffffffff811115613938575f5ffd5b8701601f81018913613948575f5ffd5b803567ffffffffffffffff81111561395e575f5ffd5b89602082840101111561396f575f5ffd5b60208201935080925050509295509295509295565b8015158114613786575f5ffd5b5f5f604083850312156139a2575f5ffd5b6139ab836138a1565b915060208301356139bb81613984565b809150509250929050565b5f5f602083850312156139d7575f5ffd5b823567ffffffffffffffff8111156139ed575f5ffd5b8301601f810185136139fd575f5ffd5b803567ffffffffffffffff811115613a13575f5ffd5b8560208260051b8401011115613a27575f5ffd5b6020919091019590945092505050565b5f5f60408385031215613a48575f5ffd5b613a51836138a1565b9150613a5f602084016138a1565b90509250929050565b5f60208284031215613a78575f5ffd5b5035919050565b6001600160a01b03929092168252602082015260400190565b6bffffffffffffffffffffffff19606093841b811682529190921b16601482015260280190565b6001600160a01b039384168152919092166020820152604081019190915260600190565b5f60208284031215613af3575f5ffd5b81516138d581613984565b6001600160a01b0392831681529116602082015260400190565b5f60208284031215613b28575f5ffd5b5051919050565b818382375f9101908152919050565b634e487b7160e01b5f52601160045260245ffd5b81810381811115613b6557613b65613b3e565b92915050565b6001600160a01b0394851681529290931660208301526040820152606081019190915260800190565b8082028115828204841417613b6557613b65613b3e565b5f82613bc557634e487b7160e01b5f52601260045260245ffd5b500490565b634e487b7160e01b5f52603260045260245ffd5b5f8235609e19833603018112613bf2575f5ffd5b9190910192915050565b5f5f8335601e19843603018112613c11575f5ffd5b83018035915067ffffffffffffffff821115613c2b575f5ffd5b602001915036819003821315613c3f575f5ffd5b925092905056fead671c9d50262b75ba17bdf7e330ae0d7da971800b2526584a85f83d23296b15a26469706673582212203853353339b7b05a560e6e40334a36e6663f2bf875b0e37470b46b8e8681ea9964736f6c634300081e0033","linkReferences":{}},"methodIdentifiers":{"WETH()":"ad5c4648","admins(address)":"429b62e5","batchExecuteNativeSwaps((address,address,address,uint256,bytes)[])":"ba20ac00","batchExecuteNativeSwapsWithFee((address,address,address,uint256,bytes)[])":"6c5f1f54","batchExecuteSwaps((address,address,address,uint256,bytes)[])":"ae75f0cc","batchExecuteSwapsWithFee((address,address,address,uint256,bytes)[])":"8d041a79","cancelPlan(address)":"100da5d6","createPlan(address,address)":"d30dfa85","emergencyWithdrawETH()":"84536017","executeNativeSwap(address,address,address,uint256,bytes)":"44272f43","executeNativeSwapWithFee(address,address,address,uint256,bytes)":"ba5f954a","executeSwap(address,address,address,uint256,bytes)":"c8ff3fee","executeSwapWithFee(address,address,address,uint256,bytes)":"4c5cc3e0","feeBps()":"24a9d853","feeRecipient()":"46904840","owner()":"8da5cb5b","planHash(address,address)":"7823f8c0","renounceOwnership()":"715018a6","setAdmin(address,bool)":"4b0bddd2","swapRouter()":"c31c9c07","tokenIn()":"6daf390b","transferOwnership(address)":"f2fde38b","underlyingToken()":"2495a599","updateFeeBps(uint256)":"96a1cd27","updateFeeRecipient(address)":"f160d369","updatePlanRecipient(address,address)":"d217bcec","updateSwapRouter(address)":"b98b677f","updateUnderlyingToken(address)":"c4d6978f"},"id":22}